{
  "contractName": "Oware",
  "abi": [
    {
      "inputs": [
        {
          "internalType": "string",
          "name": "name_",
          "type": "string"
        },
        {
          "internalType": "string",
          "name": "symbol_",
          "type": "string"
        }
      ],
      "stateMutability": "nonpayable",
      "type": "constructor"
    },
    {
      "anonymous": false,
      "inputs": [
        {
          "indexed": false,
          "internalType": "string",
          "name": "",
          "type": "string"
        }
      ],
      "name": "ResultEvent",
      "type": "event"
    },
    {
      "inputs": [
        {
          "internalType": "address",
          "name": "owner",
          "type": "address"
        },
        {
          "internalType": "string",
          "name": "tokenURI",
          "type": "string"
        }
      ],
      "name": "addTransaction",
      "outputs": [
        {
          "internalType": "uint256",
          "name": "",
          "type": "uint256"
        }
      ],
      "stateMutability": "nonpayable",
      "type": "function"
    },
    {
      "inputs": [],
      "name": "totalTransactions",
      "outputs": [
        {
          "internalType": "uint256",
          "name": "",
          "type": "uint256"
        }
      ],
      "stateMutability": "view",
      "type": "function",
      "constant": true
    },
    {
      "inputs": [],
      "name": "getTokenURIs",
      "outputs": [
        {
          "internalType": "string[]",
          "name": "",
          "type": "string[]"
        }
      ],
      "stateMutability": "view",
      "type": "function",
      "constant": true
    },
    {
      "inputs": [
        {
          "internalType": "string",
          "name": "Productcode",
          "type": "string"
        }
      ],
      "name": "confrimToken",
      "outputs": [
        {
          "internalType": "bool",
          "name": "",
          "type": "bool"
        }
      ],
      "stateMutability": "view",
      "type": "function",
      "constant": true
    }
  ],
  "bytecode": "0x60806040523480156200001157600080fd5b5060405162001312380380620013128339818101604052810190620000379190620002be565b81600190805190602001906200004f92919062000071565b5080600290805190602001906200006892919062000071565b505050620003a8565b8280546200007f9062000372565b90600052602060002090601f016020900481019282620000a35760008555620000ef565b82601f10620000be57805160ff1916838001178555620000ef565b82800160010185558215620000ef579182015b82811115620000ee578251825591602001919060010190620000d1565b5b509050620000fe919062000102565b5090565b5b808211156200011d57600081600090555060010162000103565b5090565b6000604051905090565b600080fd5b600080fd5b600080fd5b600080fd5b6000601f19601f8301169050919050565b7f4e487b7100000000000000000000000000000000000000000000000000000000600052604160045260246000fd5b6200018a826200013f565b810181811067ffffffffffffffff82111715620001ac57620001ab62000150565b5b80604052505050565b6000620001c162000121565b9050620001cf82826200017f565b919050565b600067ffffffffffffffff821115620001f257620001f162000150565b5b620001fd826200013f565b9050602081019050919050565b60005b838110156200022a5780820151818401526020810190506200020d565b838111156200023a576000848401525b50505050565b6000620002576200025184620001d4565b620001b5565b9050828152602081018484840111156200027657620002756200013a565b5b620002838482856200020a565b509392505050565b600082601f830112620002a357620002a262000135565b5b8151620002b584826020860162000240565b91505092915050565b60008060408385031215620002d857620002d76200012b565b5b600083015167ffffffffffffffff811115620002f957620002f862000130565b5b62000307858286016200028b565b925050602083015167ffffffffffffffff8111156200032b576200032a62000130565b5b62000339858286016200028b565b9150509250929050565b7f4e487b7100000000000000000000000000000000000000000000000000000000600052602260045260246000fd5b600060028204905060018216806200038b57607f821691505b60208210811415620003a257620003a162000343565b5b50919050565b610f5a80620003b86000396000f3fe608060405234801561001057600080fd5b506004361061004c5760003560e01c80635244ea371461005157806367f202c514610081578063b6d3564b146100b1578063b9a60038146100cf575b600080fd5b61006b600480360381019061006691906108a5565b6100ed565b604051610078919061091a565b60405180910390f35b61009b60048036038101906100969190610935565b61012c565b6040516100a89190610999565b60405180910390f35b6100b9610275565b6040516100c69190610afe565b60405180910390f35b6100d76103c3565b6040516100e4919061091a565b60405180910390f35b600060016000808282546101019190610b4f565b9250508190555060008054905061011884826103cc565b6101228184610510565b8091505092915050565b60006101478260405180602001604052806000815250610584565b610186576040517f08c379a000000000000000000000000000000000000000000000000000000000815260040161017d90610c02565b60405180910390fd5b60005b6101916103c3565b81101561026a5761024983600460006001856101ad9190610b4f565b815260200190815260200160002080546101c690610c51565b80601f01602080910402602001604051908101604052809291908181526020018280546101f290610c51565b801561023f5780601f106102145761010080835404028352916020019161023f565b820191906000526020600020905b81548152906001019060200180831161022257829003601f168201915b5050505050610584565b610257576001915050610270565b808061026290610c83565b915050610189565b50600090505b919050565b606060006102816103c3565b67ffffffffffffffff81111561029a5761029961077a565b5b6040519080825280602002602001820160405280156102cd57816020015b60608152602001906001900390816102b85790505b50905060005b6102db6103c3565b8110156103bb57600460006001836102f39190610b4f565b8152602001908152602001600020805461030c90610c51565b80601f016020809104026020016040519081016040528092919081815260200182805461033890610c51565b80156103855780601f1061035a57610100808354040283529160200191610385565b820191906000526020600020905b81548152906001019060200180831161036857829003601f168201915b505050505082828151811061039d5761039c610ccc565b5b602002602001018190525080806103b390610c83565b9150506102d3565b508091505090565b60008054905090565b600073ffffffffffffffffffffffffffffffffffffffff168273ffffffffffffffffffffffffffffffffffffffff16141561043c576040517f08c379a000000000000000000000000000000000000000000000000000000000815260040161043390610d47565b60405180910390fd5b610445816105de565b15610485576040517f08c379a000000000000000000000000000000000000000000000000000000000815260040161047c90610db3565b60405180910390fd5b816003600083815260200190815260200160002060006101000a81548173ffffffffffffffffffffffffffffffffffffffff021916908373ffffffffffffffffffffffffffffffffffffffff1602179055507f2d15a608071cc2a2a7e3918cfe0b873aaf2dacb01062337013fffbc9890b12b460405161050490610e1f565b60405180910390a15050565b610519826105de565b610558576040517f08c379a000000000000000000000000000000000000000000000000000000000815260040161054f90610eb1565b60405180910390fd5b8060046000848152602001908152602001600020908051906020019061057f92919061064a565b505050565b6000816040516020016105979190610f0d565b60405160208183030381529060405280519060200120836040516020016105be9190610f0d565b604051602081830303815290604052805190602001201415905092915050565b60008073ffffffffffffffffffffffffffffffffffffffff166003600084815260200190815260200160002060009054906101000a900473ffffffffffffffffffffffffffffffffffffffff1673ffffffffffffffffffffffffffffffffffffffff1614159050919050565b82805461065690610c51565b90600052602060002090601f01602090048101928261067857600085556106bf565b82601f1061069157805160ff19168380011785556106bf565b828001600101855582156106bf579182015b828111156106be5782518255916020019190600101906106a3565b5b5090506106cc91906106d0565b5090565b5b808211156106e95760008160009055506001016106d1565b5090565b6000604051905090565b600080fd5b600080fd5b600073ffffffffffffffffffffffffffffffffffffffff82169050919050565b600061072c82610701565b9050919050565b61073c81610721565b811461074757600080fd5b50565b60008135905061075981610733565b92915050565b600080fd5b600080fd5b6000601f19601f8301169050919050565b7f4e487b7100000000000000000000000000000000000000000000000000000000600052604160045260246000fd5b6107b282610769565b810181811067ffffffffffffffff821117156107d1576107d061077a565b5b80604052505050565b60006107e46106ed565b90506107f082826107a9565b919050565b600067ffffffffffffffff8211156108105761080f61077a565b5b61081982610769565b9050602081019050919050565b82818337600083830152505050565b6000610848610843846107f5565b6107da565b90508281526020810184848401111561086457610863610764565b5b61086f848285610826565b509392505050565b600082601f83011261088c5761088b61075f565b5b813561089c848260208601610835565b91505092915050565b600080604083850312156108bc576108bb6106f7565b5b60006108ca8582860161074a565b925050602083013567ffffffffffffffff8111156108eb576108ea6106fc565b5b6108f785828601610877565b9150509250929050565b6000819050919050565b61091481610901565b82525050565b600060208201905061092f600083018461090b565b92915050565b60006020828403121561094b5761094a6106f7565b5b600082013567ffffffffffffffff811115610969576109686106fc565b5b61097584828501610877565b91505092915050565b60008115159050919050565b6109938161097e565b82525050565b60006020820190506109ae600083018461098a565b92915050565b600081519050919050565b600082825260208201905092915050565b6000819050602082019050919050565b600081519050919050565b600082825260208201905092915050565b60005b83811015610a1a5780820151818401526020810190506109ff565b83811115610a29576000848401525b50505050565b6000610a3a826109e0565b610a4481856109eb565b9350610a548185602086016109fc565b610a5d81610769565b840191505092915050565b6000610a748383610a2f565b905092915050565b6000602082019050919050565b6000610a94826109b4565b610a9e81856109bf565b935083602082028501610ab0856109d0565b8060005b85811015610aec5784840389528151610acd8582610a68565b9450610ad883610a7c565b925060208a01995050600181019050610ab4565b50829750879550505050505092915050565b60006020820190508181036000830152610b188184610a89565b905092915050565b7f4e487b7100000000000000000000000000000000000000000000000000000000600052601160045260246000fd5b6000610b5a82610901565b9150610b6583610901565b9250827fffffffffffffffffffffffffffffffffffffffffffffffffffffffffffffffff03821115610b9a57610b99610b20565b5b828201905092915050565b600082825260208201905092915050565b7f456d7074792050726f6475637420436f64650000000000000000000000000000600082015250565b6000610bec601283610ba5565b9150610bf782610bb6565b602082019050919050565b60006020820190508181036000830152610c1b81610bdf565b9050919050565b7f4e487b7100000000000000000000000000000000000000000000000000000000600052602260045260246000fd5b60006002820490506001821680610c6957607f821691505b60208210811415610c7d57610c7c610c22565b5b50919050565b6000610c8e82610901565b91507fffffffffffffffffffffffffffffffffffffffffffffffffffffffffffffffff821415610cc157610cc0610b20565b5b600182019050919050565b7f4e487b7100000000000000000000000000000000000000000000000000000000600052603260045260246000fd5b7f4552433732313a206d696e7420746f20746865207a65726f2061646472657373600082015250565b6000610d31602083610ba5565b9150610d3c82610cfb565b602082019050919050565b60006020820190508181036000830152610d6081610d24565b9050919050565b7f4552433732313a20746f6b656e20616c7265616479206d696e74656400000000600082015250565b6000610d9d601c83610ba5565b9150610da882610d67565b602082019050919050565b60006020820190508181036000830152610dcc81610d90565b9050919050565b7f4e6577205472616e73616374696f6e204d696e74656400000000000000000000600082015250565b6000610e09601683610ba5565b9150610e1482610dd3565b602082019050919050565b60006020820190508181036000830152610e3881610dfc565b9050919050565b7f45524337323155524953746f726167653a2055524920736574206f66206e6f6e60008201527f6578697374656e7420746f6b656e000000000000000000000000000000000000602082015250565b6000610e9b602e83610ba5565b9150610ea682610e3f565b604082019050919050565b60006020820190508181036000830152610eca81610e8e565b9050919050565b600081905092915050565b6000610ee7826109e0565b610ef18185610ed1565b9350610f018185602086016109fc565b80840191505092915050565b6000610f198284610edc565b91508190509291505056fea26469706673582212202baf12709d4003dae985101036b0c86ac4534b291afc668480ec7321583aa81c64736f6c634300080c0033",
  "immutableReferences": {},
  "source": "pragma solidity ^0.8.0;\r\n\r\ncontract Oware{\r\n    uint256 private _tokenIds;\r\n    string _appname;\r\n    string _symbol;\r\n\r\n    constructor(string memory name_, string memory symbol_) {\r\n        _appname = name_;\r\n        _symbol = symbol_;\r\n    }\r\n    \r\n    mapping (uint256 => address) private _owners;\r\n    mapping (uint256 => string) private _tokenURIs;\r\n    \r\n    function addTransaction(address owner, string memory tokenURI) public returns (uint256)\r\n    {\r\n        _tokenIds+=1;\r\n        uint256 newTransactionId = _tokenIds;\r\n        _mint(owner, newTransactionId);\r\n        _setTokenURI(newTransactionId, tokenURI);\r\n        return newTransactionId;\r\n    }\r\n    function totalTransactions() public view returns(uint256)\r\n    {\r\n        return _tokenIds;\r\n    }\r\n    function getTokenURIs() public view returns (string[] memory) {\r\n        string[] memory ret = new string[](totalTransactions());\r\n        for (uint i = 0; i < totalTransactions(); i++) {\r\n            ret[i] = _tokenURIs[i+1];\r\n        }\r\n        return ret;\r\n    }\r\n    function confrimToken(string memory Productcode) public view returns (bool) {\r\n        require(compareStrings(Productcode,\"\"), \"Empty Product Code\");\r\n        for (uint i = 0; i < totalTransactions(); i++) { \r\n            if(!compareStrings(Productcode,_tokenURIs[i+1]))\r\n            {\r\n                return true;\r\n            }\r\n        }\r\n        return false;\r\n    }\r\n    function compareStrings(string memory a, string memory b) private pure returns (bool) {\r\n        return (keccak256(abi.encodePacked((a))) != keccak256(abi.encodePacked((b))));\r\n    }\r\n    function _setTokenURI(uint256 tokenid,string memory tokenURI) internal\r\n    {\r\n        require(_exists(tokenid), \"ERC721URIStorage: URI set of nonexistent token\");\r\n        _tokenURIs[tokenid] = tokenURI;\r\n    }\r\n    function _mint(address to, uint256 tokenId) internal virtual {\r\n        require(to != address(0), \"ERC721: mint to the zero address\");\r\n        require(!_exists(tokenId), \"ERC721: token already minted\");\r\n        _owners[tokenId] = to;\r\n        emit ResultEvent(\"New Transaction Minted\");\r\n    }\r\n    event ResultEvent(\r\n        string \r\n    );\r\n    function _exists(uint256 tokenId) internal view virtual returns (bool) {\r\n        return _owners[tokenId] != address(0);\r\n    }\r\n}\r\n",
  "sourcePath": "C:/Users/FoxyLaptop/Desktop/Blockchain Project Oware/contracts/Oware.sol",
  "compiler": {
    "name": "solc",
    "version": "0.8.12+commit.f00d7308.Emscripten.clang"
  },
  "schemaVersion": "3.3.4",
  "updatedAt": "2022-03-20T15:25:46.816Z",
  "networkType": "ethereum",
  "devdoc": {
    "kind": "dev",
    "methods": {},
    "version": 1
  },
  "userdoc": {
    "kind": "user",
    "methods": {},
    "version": 1
  }
}